:1000000022C07DC139C038C0B6C136C035C030C18C
:1000100033C032C031C030C02FC02EC02DC02CC064
:100020002BC02AC029C00101010101020102020303
:100030000203030404040506070708090A0B0D0E52
:10004000101215161A1C11241FBECFEDCDBF10E0E3
:10005000A0E6B0E0E2E8F6E002C005900D92A0361E
:10006000B107D9F710E0A0E6B0E001C01D92A33AB5
:10007000B107E1F788D203C3C3CF5D9BFECF8CB934
:1000800008950F931F93CF93DF93582F882389F000
:1000900040E0242F30E0F901EE59FF4F808182319A
:1000A00069F1833158F4803109F477C0813109F462
:1000B00051C0DF91CF911F910F910895803309F4C2
:1000C00046C0813309F440C0803299F78091A20084
:1000D00081608093A2004F5FE42FF0E0EE59FF4F64
:1000E0008081803F31F74F5F451718F7242F30E0AC
:1000F000F901EE59FF4F8081823199F6F901ED59EE
:10010000FF4F80818530F0F490E0F901EC59FF4F0A
:1001100060816F71DC01AA0FBB1FA80FB91FAD561C
:10012000BF4F6C93F901EB59FF4F80818F7111968E
:100130008C9311972A593F4FF90180818F71129644
:100140008C9312974B5FC8CFC3984F5FC5CFC39AAC
:100150004F5FC2CF80E090E0E901CD59DF4FB90198
:100160006C597F4F89010B591F4F28812F71FC015A
:10017000EE0FFF1FE80FF91FED56FF4F2083DB0145
:100180002C912F712183D8012C912F7122830196FC
:100190008530910551F74C5F9FCFF901ED59FF4F25
:1001A00080818F7180939300F901EC59FF4F80811A
:1001B0008F7180939400F901EB59FF4F80818F710B
:1001C00080939500F901EA59FF4F80818F718093E8
:1001D0009600F901E959FF4F80818F718093970054
:1001E000F901E859FF4F80818F7180939800F901E0
:1001F000E759FF4F80818F7180939900F901E6598B
:10020000FF4F80818F7180939A00F901E559FF4F6C
:1002100080818F7180939B00F901E459FF4F8081A9
:100220008F7180939C00F901E359FF4F80818F719A
:1002300080939D00F901E259FF4F80818F71809377
:100240009E00F901E159FF4F80818F7180939F00DB
:10025000F901E059FF4F80818F718093A0002F58E2
:100260003F4FD9018C918F718093A100405F34CFB3
:100270001F920F920FB60F9211248F93EF93FF935B
:10028000809161008032E0F4E0916100F0E08CB197
:10029000EE59FF4F8083809161008F5F80936100F2
:1002A000E0916100F0E0EF59FF4F80818E3F99F0BF
:1002B000FF91EF918F910F900FBE0F901F901895A7
:1002C0008AB18F768AB9FF91EF918F910F900FBE0F
:1002D0000F901F9018958091A20082608093A200D9
:1002E0008AB18F768AB95D9BFECF8AEA8CB9FF917D
:1002F000EF918F910F900FBE0F901F9018951F9246
:100300000F920FB60F9211248F93109261008AB151
:1003100080698AB98F910F900FBE0F901F9018952A
:10032000109261001092A2008FEF80939200809350
:10033000910080E090E09C01220F331F280F391FAD
:10034000F901EE57FF4F108211821282F901ED562A
:10035000FF4F10821182128201968530910559F764
:1003600080E090E0FC01EE59FF4F10820196803250
:100370009105C1F708951F920F920FB60F921124A5
:100380002F933F934F935F936F937F938F939F939D
:10039000AF93BF93EF93FF9320916000E22FF0E0C3
:1003A000EA5DFF4F8491222309F0CDC09091A20015
:1003B000977F9093A2009FEF90939200909391006B
:1003C00090E06FE073E049D19BBD8ABD80918900C8
:1003D00080918A0080918B00821728F4809192008E
:1003E0008F7D8093920080918C00821728F48091F9
:1003F00092008F7E8093920080918D00821728F466
:1004000080919200877F8093920080918E00821766
:1004100028F4809192008B7F8093920080918F00CE
:10042000821728F4809192008D7F809392008091B2
:100430009000821728F4809192008E7F8093920022
:1004400080918200821728F4809191008F7B8093A5
:10045000910080918300821728F4809191008F7D14
:100460008093910080918400821728F480919100FC
:100470008F7E8093910080918500821728F480916F
:100480009100877F8093910080918600821728F4E5
:10049000809191008B7F80939100809187008217DB
:1004A00028F4809191008D7F809391008091880045
:1004B000821728F4809191008E7F80939100809123
:1004C000A20084608093A2002F5F209360002031FF
:1004D00009F453C0203230F1109260008091A200E4
:1004E00080FF20C080E090E09C01220F331F280F86
:1004F000391FF901ED56FF4F4081D901AE57BF4F6B
:100500004C93218111962C931197228112962C9352
:10051000129701968530910539F78091A2008E7F60
:100520008093A200FF91EF91BF91AF919F918F9126
:100530007F916F915F914F913F912F910F900FBEDF
:100540000F901F90189590E06FE073E086D09BBDF0
:100550008ABD80918900821728F4809192008F775C
:100560008093920080918A00821708F033CF8091A7
:1005700092008F7B809392002DCF8091A2008860A3
:100580008093A200CFCF8FEF87BB82E081BB84E056
:1005900082BB12B88FE089B91BB8C8E0CAB986E03F
:1005A00083B985B7826085BF8BB780648BBF1FBC62
:1005B00089E08EBD12BC8FE093E09BBD8ABD89B7F8
:1005C000806489BFADDE789488E190E00FB6F8943E
:1005D000A89581BD0FBEC1BDA8958091A20082FFE4
:1005E0002BC08091A2008B7F8093A20090919200FB
:1005F00088E006C0C698C79AC798990F815041F005
:1006000097FFF8CFC69AC79AC798990F8150C1F73C
:100610009091910088E006C0C698C79AC798990F34
:10062000815041F097FFF8CFC69AC79AC798990FA3
:100630008150C1F7C49AC4988091A20083FFCCCFA7
:100640008091A20081FFC8CF809161001ADD809166
:10065000A2008D7F8093A200BFCF5527002480FF8A
:1006600002C0060E571F660F771F6115710521F036
:1006700096958795009799F7952F802D0895F89472
:02068000FFCFAA
:00000001FF
